{
  "_format": "hh-sol-artifact-1",
  "contractName": "DecenAIX",
  "sourceName": "contracts/DecnAIX.sol",
  "abi": [
    {
      "inputs": [],
      "stateMutability": "nonpayable",
      "type": "constructor"
    },
    {
      "anonymous": false,
      "inputs": [
        {
          "indexed": true,
          "internalType": "uint256",
          "name": "taskId",
          "type": "uint256"
        }
      ],
      "name": "DisputeRaised",
      "type": "event"
    },
    {
      "anonymous": false,
      "inputs": [
        {
          "indexed": true,
          "internalType": "uint256",
          "name": "taskId",
          "type": "uint256"
        },
        {
          "indexed": true,
          "internalType": "address",
          "name": "provider",
          "type": "address"
        },
        {
          "indexed": false,
          "internalType": "uint256",
          "name": "providerAmount",
          "type": "uint256"
        }
      ],
      "name": "PaymentReleased",
      "type": "event"
    },
    {
      "anonymous": false,
      "inputs": [
        {
          "indexed": true,
          "internalType": "uint256",
          "name": "taskId",
          "type": "uint256"
        },
        {
          "indexed": true,
          "internalType": "address",
          "name": "provider",
          "type": "address"
        }
      ],
      "name": "TaskAccepted",
      "type": "event"
    },
    {
      "anonymous": false,
      "inputs": [
        {
          "indexed": true,
          "internalType": "uint256",
          "name": "taskId",
          "type": "uint256"
        }
      ],
      "name": "TaskCompleted",
      "type": "event"
    },
    {
      "anonymous": false,
      "inputs": [
        {
          "indexed": true,
          "internalType": "uint256",
          "name": "taskId",
          "type": "uint256"
        },
        {
          "indexed": true,
          "internalType": "address",
          "name": "renter",
          "type": "address"
        }
      ],
      "name": "TaskCreated",
      "type": "event"
    },
    {
      "anonymous": false,
      "inputs": [
        {
          "indexed": true,
          "internalType": "address",
          "name": "owner",
          "type": "address"
        },
        {
          "indexed": false,
          "internalType": "uint256",
          "name": "amount",
          "type": "uint256"
        }
      ],
      "name": "Withdrawn",
      "type": "event"
    },
    {
      "inputs": [
        {
          "internalType": "uint256",
          "name": "taskId",
          "type": "uint256"
        }
      ],
      "name": "acceptTask",
      "outputs": [],
      "stateMutability": "nonpayable",
      "type": "function"
    },
    {
      "inputs": [
        {
          "internalType": "string",
          "name": "ipfsCodeHash",
          "type": "string"
        },
        {
          "internalType": "string",
          "name": "filePassword",
          "type": "string"
        },
        {
          "internalType": "uint256",
          "name": "duration",
          "type": "uint256"
        }
      ],
      "name": "createTask",
      "outputs": [],
      "stateMutability": "nonpayable",
      "type": "function"
    },
    {
      "inputs": [
        {
          "internalType": "uint256",
          "name": "taskId",
          "type": "uint256"
        }
      ],
      "name": "getDownloadKey",
      "outputs": [
        {
          "internalType": "string",
          "name": "",
          "type": "string"
        }
      ],
      "stateMutability": "view",
      "type": "function"
    },
    {
      "inputs": [
        {
          "internalType": "uint256",
          "name": "taskId",
          "type": "uint256"
        }
      ],
      "name": "getTask",
      "outputs": [
        {
          "internalType": "address",
          "name": "renter",
          "type": "address"
        },
        {
          "internalType": "address",
          "name": "provider",
          "type": "address"
        },
        {
          "internalType": "uint256",
          "name": "duration",
          "type": "uint256"
        },
        {
          "internalType": "enum DecenAIX.TaskStatus",
          "name": "status",
          "type": "uint8"
        }
      ],
      "stateMutability": "view",
      "type": "function"
    },
    {
      "inputs": [
        {
          "internalType": "uint256",
          "name": "taskId",
          "type": "uint256"
        }
      ],
      "name": "markTaskCompleted",
      "outputs": [],
      "stateMutability": "nonpayable",
      "type": "function"
    },
    {
      "inputs": [],
      "name": "owner",
      "outputs": [
        {
          "internalType": "address",
          "name": "",
          "type": "address"
        }
      ],
      "stateMutability": "view",
      "type": "function"
    },
    {
      "inputs": [
        {
          "internalType": "uint256",
          "name": "taskId",
          "type": "uint256"
        }
      ],
      "name": "payAndUnlock",
      "outputs": [],
      "stateMutability": "payable",
      "type": "function"
    },
    {
      "inputs": [],
      "name": "platformFeePercent",
      "outputs": [
        {
          "internalType": "uint256",
          "name": "",
          "type": "uint256"
        }
      ],
      "stateMutability": "view",
      "type": "function"
    },
    {
      "inputs": [
        {
          "internalType": "uint256",
          "name": "taskId",
          "type": "uint256"
        }
      ],
      "name": "raiseDispute",
      "outputs": [],
      "stateMutability": "nonpayable",
      "type": "function"
    },
    {
      "inputs": [],
      "name": "taskCounter",
      "outputs": [
        {
          "internalType": "uint256",
          "name": "",
          "type": "uint256"
        }
      ],
      "stateMutability": "view",
      "type": "function"
    },
    {
      "inputs": [],
      "name": "withdraw",
      "outputs": [],
      "stateMutability": "nonpayable",
      "type": "function"
    }
  ],
  "bytecode": "0x608060405234801561001057600080fd5b50600080546001600160a01b03191633178155600155610fb2806100356000396000f3fe60806040526004361061009b5760003560e01c8063586717301161006457806358671730146101895780638c639a85146101ad5780638da5cb5b146101c2578063a5c1674e146101fa578063ef8c90171461021a578063fc3522e71461022d57600080fd5b80620b2bda146100a05780631bf6912d146100c25780631d65e77e146100e25780633ccfd60b1461015457806341a4e30a14610169575b600080fd5b3480156100ac57600080fd5b506100c06100bb366004610ba7565b61025a565b005b3480156100ce57600080fd5b506100c06100dd366004610ba7565b610362565b3480156100ee57600080fd5b5061013b6100fd366004610ba7565b600090815260026020819052604090912060018101549181015460058201546006909201546001600160a01b0393841694939091169260ff90911690565b60405161014b9493929190610bd6565b60405180910390f35b34801561016057600080fd5b506100c06104ce565b34801561017557600080fd5b506100c0610184366004610c38565b610633565b34801561019557600080fd5b5061019f60015481565b60405190815260200161014b565b3480156101b957600080fd5b5061019f600581565b3480156101ce57600080fd5b506000546101e2906001600160a01b031681565b6040516001600160a01b03909116815260200161014b565b34801561020657600080fd5b506100c0610215366004610ba7565b6107a9565b6100c0610228366004610ba7565b610813565b34801561023957600080fd5b5061024d610248366004610ba7565b610a2d565b60405161014b9190610d46565b6000818152600260208190526040909120015481906001600160a01b031633146102ba5760405162461bcd60e51b815260206004820152600c60248201526b2737ba10383937bb34b232b960a11b60448201526064015b60405180910390fd5b60008281526002602052604090206001600682015460ff1660038111156102e3576102e3610bc0565b146103235760405162461bcd60e51b815260206004820152601060248201526f139bdd081858d8d95c1d1959081e595d60821b60448201526064016102b1565b60068101805460ff1916600217905560405183907fc1fa7142cfb933d0855114a3bffde296944c30b727f297c14d0db4d553d3a5c790600090a2505050565b60008181526002602052604090206001810154336001600160a01b03909116036103ce5760405162461bcd60e51b815260206004820152601a60248201527f52656e7465722063616e206e6f742062652070726f766964657200000000000060448201526064016102b1565b6000600682015460ff1660038111156103e9576103e9610bc0565b1461042b5760405162461bcd60e51b81526020600482015260126024820152715461736b206e6f7420617661696c61626c6560701b60448201526064016102b1565b60028101546001600160a01b0316156104795760405162461bcd60e51b815260206004820152601060248201526f105b1c9958591e481858d8d95c1d195960821b60448201526064016102b1565b6002810180546001600160a01b0319163390811790915560068201805460ff1916600117905560405183907fc8717b61398fb9d7cacf49fe1e296b2f10e9711226b532842b6ffd642cb6a2c690600090a35050565b6000546001600160a01b031633146105145760405162461bcd60e51b81526020600482015260096024820152682737ba1037bbb732b960b91b60448201526064016102b1565b47806105585760405162461bcd60e51b81526020600482015260136024820152724e6f7468696e6720746f20776974686472617760681b60448201526064016102b1565b600080546040516001600160a01b039091169083908381818185875af1925050503d80600081146105a5576040519150601f19603f3d011682016040523d82523d6000602084013e6105aa565b606091505b50509050806105ed5760405162461bcd60e51b815260206004820152600f60248201526e15da5d1a191c985dc819985a5b1959608a1b60448201526064016102b1565b6000546040518381526001600160a01b03909116907f7084f5476618d8e60b11ef0d7d3f06914655adb8793e28ff7f018d4c76d505d59060200160405180910390a25050565b6001805490600061064383610daa565b91905055506040518060e001604052806001548152602001336001600160a01b0316815260200160006001600160a01b0316815260200185858080601f0160208091040260200160405190810160405280939291908181526020018383808284376000920182905250938552505050602082018590526040820184905260609091015260018054600090815260026020818152604092839020855181559085015193810180546001600160a01b03199081166001600160a01b0396871617909155928501519181018054909316919093161790556060820151600382019061072b9082610e46565b50608082015160048201906107409082610e46565b5060a0820151600582015560c082015160068201805460ff1916600183600381111561076e5761076e610bc0565b0217905550506001546040513392507fe9ee39160568153d230ca0e29961267415d513defbb7d3b21af0fe940e1ebd1590600090a350505050565b60008181526002602052604090206001015481906001600160a01b031633146107e45760405162461bcd60e51b81526004016102b190610f06565b60405182907f04901f83201c8724eadf084436db8aa391820bae6d11f9f78a17edb6f2eef3cf90600090a25050565b60008181526002602052604090206001015481906001600160a01b0316331461084e5760405162461bcd60e51b81526004016102b190610f06565b600082815260026020819052604090912090600682015460ff16600381111561087957610879610bc0565b146108ba5760405162461bcd60e51b81526020600482015260116024820152705461736b206e6f7420636f6d706c65746560781b60448201526064016102b1565b6108c383610b76565b156108ff5760405162461bcd60e51b815260206004820152600c60248201526b105b1c9958591e481c185a5960a21b60448201526064016102b1565b6000606461090e600534610f2a565b6109189190610f47565b905060006109268234610f69565b60028401546040519192506000916001600160a01b039091169083908381818185875af1925050503d806000811461097a576040519150601f19603f3d011682016040523d82523d6000602084013e61097f565b606091505b50509050806109d05760405162461bcd60e51b815260206004820152601760248201527f50726f7669646572207061796d656e74206661696c656400000000000000000060448201526064016102b1565b60068401805460ff1916600317905560028401546040518381526001600160a01b039091169087907f21d71db5be59bb9fa133895586b7404307dd33fb93b16db09dc6f1d9d7d231b09060200160405180910390a3505050505050565b60008181526002602052604090206001015460609082906001600160a01b03163314610a6b5760405162461bcd60e51b81526004016102b190610f06565b600360008481526002602052604090206006015460ff166003811115610a9357610a93610bc0565b14610ad35760405162461bcd60e51b815260206004820152601060248201526f14185e5b595b9d081c995c5d5a5c995960821b60448201526064016102b1565b60008381526002602052604090206004018054610aef90610dc3565b80601f0160208091040260200160405190810160405280929190818152602001828054610b1b90610dc3565b8015610b685780601f10610b3d57610100808354040283529160200191610b68565b820191906000526020600020905b815481529060010190602001808311610b4b57829003601f168201915b505050505091505b50919050565b6000600360008381526002602052604090206006015460ff166003811115610ba057610ba0610bc0565b1492915050565b600060208284031215610bb957600080fd5b5035919050565b634e487b7160e01b600052602160045260246000fd5b6001600160a01b03858116825284166020820152604081018390526080810160048310610c1357634e487b7160e01b600052602160045260246000fd5b82606083015295945050505050565b634e487b7160e01b600052604160045260246000fd5b60008060008060608587031215610c4e57600080fd5b843567ffffffffffffffff80821115610c6657600080fd5b818701915087601f830112610c7a57600080fd5b813581811115610c8957600080fd5b60208981838601011115610c9c57600080fd5b808401975081965080890135935082841115610cb757600080fd5b838901935089601f850112610ccb57600080fd5b8335915082821115610cdf57610cdf610c22565b604051601f8301601f19908116603f01168101908482118183101715610d0757610d07610c22565b816040528381528b83858801011115610d1f57600080fd5b83838701848301376000938101909201929092529699959850959660400135955050505050565b600060208083528351808285015260005b81811015610d7357858101830151858201604001528201610d57565b506000604082860101526040601f19601f8301168501019250505092915050565b634e487b7160e01b600052601160045260246000fd5b600060018201610dbc57610dbc610d94565b5060010190565b600181811c90821680610dd757607f821691505b602082108103610b7057634e487b7160e01b600052602260045260246000fd5b601f821115610e4157600081815260208120601f850160051c81016020861015610e1e5750805b601f850160051c820191505b81811015610e3d57828155600101610e2a565b5050505b505050565b815167ffffffffffffffff811115610e6057610e60610c22565b610e7481610e6e8454610dc3565b84610df7565b602080601f831160018114610ea95760008415610e915750858301515b600019600386901b1c1916600185901b178555610e3d565b600085815260208120601f198616915b82811015610ed857888601518255948401946001909101908401610eb9565b5085821015610ef65787850151600019600388901b60f8161c191681555b5050505050600190811b01905550565b6020808252600a90820152692737ba103932b73a32b960b11b604082015260600190565b8082028115828204841417610f4157610f41610d94565b92915050565b600082610f6457634e487b7160e01b600052601260045260246000fd5b500490565b81810381811115610f4157610f41610d9456fea26469706673582212201012da813ac5200929872bc577016995aeaa3316aad2fcf73db420890a46709964736f6c63430008130033",
  "linkReferences": {},
  "deployedLinkReferences": {}
}